{
  "address": "0xFC451F659501bc93D27d587c0bFc7C2b3c6a7dFF",
  "abi": [
    {
      "inputs": [
        {
          "internalType": "address payable",
          "name": "_gelato",
          "type": "address"
        }
      ],
      "stateMutability": "nonpayable",
      "type": "constructor"
    },
    {
      "anonymous": false,
      "inputs": [
        {
          "indexed": false,
          "internalType": "bytes32",
          "name": "task",
          "type": "bytes32"
        }
      ],
      "name": "TaskCancelled",
      "type": "event"
    },
    {
      "anonymous": false,
      "inputs": [
        {
          "indexed": false,
          "internalType": "address",
          "name": "execAddress",
          "type": "address"
        },
        {
          "indexed": false,
          "internalType": "bytes4",
          "name": "selector",
          "type": "bytes4"
        },
        {
          "indexed": false,
          "internalType": "address",
          "name": "resolver",
          "type": "address"
        },
        {
          "indexed": false,
          "internalType": "bytes",
          "name": "resolverData",
          "type": "bytes"
        }
      ],
      "name": "TaskCreated",
      "type": "event"
    },
    {
      "inputs": [],
      "name": "ETH",
      "outputs": [
        {
          "internalType": "address",
          "name": "",
          "type": "address"
        }
      ],
      "stateMutability": "view",
      "type": "function"
    },
    {
      "inputs": [
        {
          "internalType": "address",
          "name": "",
          "type": "address"
        }
      ],
      "name": "balanceOfCallee",
      "outputs": [
        {
          "internalType": "uint256",
          "name": "",
          "type": "uint256"
        }
      ],
      "stateMutability": "view",
      "type": "function"
    },
    {
      "inputs": [
        {
          "internalType": "bytes32",
          "name": "",
          "type": "bytes32"
        }
      ],
      "name": "calleeOfTask",
      "outputs": [
        {
          "internalType": "address",
          "name": "",
          "type": "address"
        }
      ],
      "stateMutability": "view",
      "type": "function"
    },
    {
      "inputs": [
        {
          "internalType": "bytes32",
          "name": "_task",
          "type": "bytes32"
        }
      ],
      "name": "cancelTask",
      "outputs": [],
      "stateMutability": "nonpayable",
      "type": "function"
    },
    {
      "inputs": [
        {
          "internalType": "address",
          "name": "_execAddress",
          "type": "address"
        },
        {
          "internalType": "bytes4",
          "name": "_execSelector",
          "type": "bytes4"
        },
        {
          "internalType": "address",
          "name": "_resolver",
          "type": "address"
        },
        {
          "internalType": "bytes",
          "name": "_resolverData",
          "type": "bytes"
        }
      ],
      "name": "createTask",
      "outputs": [],
      "stateMutability": "nonpayable",
      "type": "function"
    },
    {
      "inputs": [
        {
          "internalType": "address",
          "name": "_receiver",
          "type": "address"
        }
      ],
      "name": "depositFunds",
      "outputs": [],
      "stateMutability": "payable",
      "type": "function"
    },
    {
      "inputs": [
        {
          "internalType": "uint256",
          "name": "_txFee",
          "type": "uint256"
        },
        {
          "internalType": "address",
          "name": "_execAddress",
          "type": "address"
        },
        {
          "internalType": "bytes",
          "name": "_execData",
          "type": "bytes"
        }
      ],
      "name": "exec",
      "outputs": [],
      "stateMutability": "nonpayable",
      "type": "function"
    },
    {
      "inputs": [
        {
          "internalType": "bytes32",
          "name": "",
          "type": "bytes32"
        }
      ],
      "name": "execAddresses",
      "outputs": [
        {
          "internalType": "address",
          "name": "",
          "type": "address"
        }
      ],
      "stateMutability": "view",
      "type": "function"
    },
    {
      "inputs": [],
      "name": "gelato",
      "outputs": [
        {
          "internalType": "address payable",
          "name": "",
          "type": "address"
        }
      ],
      "stateMutability": "view",
      "type": "function"
    },
    {
      "inputs": [
        {
          "internalType": "address",
          "name": "_execAddress",
          "type": "address"
        },
        {
          "internalType": "bytes4",
          "name": "_selector",
          "type": "bytes4"
        }
      ],
      "name": "getTaskHash",
      "outputs": [
        {
          "internalType": "bytes32",
          "name": "",
          "type": "bytes32"
        }
      ],
      "stateMutability": "pure",
      "type": "function"
    },
    {
      "inputs": [],
      "name": "id",
      "outputs": [
        {
          "internalType": "uint256",
          "name": "",
          "type": "uint256"
        }
      ],
      "stateMutability": "view",
      "type": "function"
    },
    {
      "inputs": [
        {
          "internalType": "uint256",
          "name": "_amount",
          "type": "uint256"
        }
      ],
      "name": "withdrawFunds",
      "outputs": [],
      "stateMutability": "nonpayable",
      "type": "function"
    }
  ],
  "transactionHash": "0x75b1ddaa5e0d5d47385f71bdfbceacd73e8c72fc49f20e16fc530d4f4130d95c",
  "args": [
    "0xCc4CcD69D31F9FfDBD3BFfDe49c6aA886DaB98d9"
  ],
  "solcInputHash": "26fa074e07d2369c796225a24beccaea",
  "bytecode": "0x60a06040523480156200001157600080fd5b506040516200258038038062002580833981810160405281019062000037919062000096565b8060016000819055508073ffffffffffffffffffffffffffffffffffffffff1660808173ffffffffffffffffffffffffffffffffffffffff1660601b81525050505062000110565b6000815190506200009081620000f6565b92915050565b600060208284031215620000a957600080fd5b6000620000b9848285016200007f565b91505092915050565b6000620000cf82620000d6565b9050919050565b600073ffffffffffffffffffffffffffffffffffffffff82169050919050565b6200010181620000c2565b81146200010d57600080fd5b50565b60805160601c61243c62000144600039600081816104fa01528181610567015281816108ee01526109c2015261243c6000f3fe6080604052600436106100a75760003560e01c80638322fff2116100645780638322fff2146101e05780638b92696a1461020b578063919747fb14610234578063af640d0f14610250578063cfe289291461027b578063ee8ca3b5146102b8576100a7565b806304bb7dbb146100ac578063155dd5ee146100e9578063573ea57514610112578063618472271461013d57806361c9ac081461017a5780636d2dd29f146101a3575b600080fd5b3480156100b857600080fd5b506100d360048036038101906100ce919061170d565b6102e1565b6040516100e09190611f9c565b60405180910390f35b3480156100f557600080fd5b50610110600480360381019061010b919061181b565b610314565b005b34801561011e57600080fd5b506101276104f8565b6040516101349190611ee1565b60405180910390f35b34801561014957600080fd5b50610164600480360381019061015f91906117f2565b61051c565b6040516101719190611ec6565b60405180910390f35b34801561018657600080fd5b506101a1600480360381019061019c9190611844565b61054f565b005b3480156101af57600080fd5b506101ca60048036038101906101c591906117f2565b6109f0565b6040516101d79190611ec6565b60405180910390f35b3480156101ec57600080fd5b506101f5610a23565b6040516102029190611ec6565b60405180910390f35b34801561021757600080fd5b50610232600480360381019061022d9190611749565b610a3b565b005b61024e600480360381019061024991906116e4565b610c28565b005b34801561025c57600080fd5b50610265610d04565b6040516102729190612199565b60405180910390f35b34801561028757600080fd5b506102a2600480360381019061029d91906116e4565b610d0a565b6040516102af9190612199565b60405180910390f35b3480156102c457600080fd5b506102df60048036038101906102da91906117f2565b610d22565b005b600082826040516020016102f6929190611efc565b60405160208183030381529060405280519060200120905092915050565b6002600054141561035a576040517f08c379a000000000000000000000000000000000000000000000000000000000815260040161035190612159565b60405180910390fd5b60026000819055506000600460003373ffffffffffffffffffffffffffffffffffffffff1673ffffffffffffffffffffffffffffffffffffffff168152602001908152602001600020549050818110156103e9576040517f08c379a00000000000000000000000000000000000000000000000000000000081526004016103e090612019565b60405180910390fd5b6103fc8282610ebd90919063ffffffff16565b600460003373ffffffffffffffffffffffffffffffffffffffff1673ffffffffffffffffffffffffffffffffffffffff1681526020019081526020016000208190555060003373ffffffffffffffffffffffffffffffffffffffff168360405161046590611eb1565b60006040518083038185875af1925050503d80600081146104a2576040519150601f19603f3d011682016040523d82523d6000602084013e6104a7565b606091505b50509050806104eb576040517f08c379a00000000000000000000000000000000000000000000000000000000081526004016104e290612139565b60405180910390fd5b5050600160008190555050565b7f000000000000000000000000000000000000000000000000000000000000000081565b60026020528060005260406000206000915054906101000a900473ffffffffffffffffffffffffffffffffffffffff1681565b8373eeeeeeeeeeeeeeeeeeeeeeeeeeeeeeeeeeeeeeee7f000000000000000000000000000000000000000000000000000000000000000073ffffffffffffffffffffffffffffffffffffffff163373ffffffffffffffffffffffffffffffffffffffff16146105f3576040517f08c379a00000000000000000000000000000000000000000000000000000000081526004016105ea90611fd9565b60405180910390fd5b6000610608866106038787610ed3565b6102e1565b9050600073ffffffffffffffffffffffffffffffffffffffff166002600083815260200190815260200160002060009054906101000a900473ffffffffffffffffffffffffffffffffffffffff1673ffffffffffffffffffffffffffffffffffffffff1614156106ad576040517f08c379a00000000000000000000000000000000000000000000000000000000081526004016106a490612079565b60405180910390fd5b60006002600083815260200190815260200160002060009054906101000a900473ffffffffffffffffffffffffffffffffffffffff169050600073ffffffffffffffffffffffffffffffffffffffff168173ffffffffffffffffffffffffffffffffffffffff161415610755576040517f08c379a000000000000000000000000000000000000000000000000000000000815260040161074c90611ff9565b60405180910390fd5b60008773ffffffffffffffffffffffffffffffffffffffff16878760405161077e929190611e81565b6000604051808303816000865af19150503d80600081146107bb576040519150601f19603f3d011682016040523d82523d6000602084013e6107c0565b606091505b5050905080610804576040517f08c379a00000000000000000000000000000000000000000000000000000000081526004016107fb90612059565b60405180910390fd5b6000600460008473ffffffffffffffffffffffffffffffffffffffff1673ffffffffffffffffffffffffffffffffffffffff16815260200190815260200160002054905061085b8a82610ebd90919063ffffffff16565b600460008573ffffffffffffffffffffffffffffffffffffffff1673ffffffffffffffffffffffffffffffffffffffff168152602001908152602001600020819055505050505073eeeeeeeeeeeeeeeeeeeeeeeeeeeeeeeeeeeeeeee73ffffffffffffffffffffffffffffffffffffffff168173ffffffffffffffffffffffffffffffffffffffff1614156109bc5760007f000000000000000000000000000000000000000000000000000000000000000073ffffffffffffffffffffffffffffffffffffffff168360405161093090611eb1565b60006040518083038185875af1925050503d806000811461096d576040519150601f19603f3d011682016040523d82523d6000602084013e610972565b606091505b50509050806109b6576040517f08c379a00000000000000000000000000000000000000000000000000000000081526004016109ad90612179565b60405180910390fd5b506109e8565b6109e7817f0000000000000000000000000000000000000000000000000000000000000000846110e1565b5b505050505050565b60036020528060005260406000206000915054906101000a900473ffffffffffffffffffffffffffffffffffffffff1681565b73eeeeeeeeeeeeeeeeeeeeeeeeeeeeeeeeeeeeeeee81565b6000610a4786866102e1565b9050600073ffffffffffffffffffffffffffffffffffffffff166002600083815260200190815260200160002060009054906101000a900473ffffffffffffffffffffffffffffffffffffffff1673ffffffffffffffffffffffffffffffffffffffff1614610aeb576040517f08c379a0000000000000000000000000000000000000000000000000000000008152600401610ae2906120d9565b60405180910390fd5b610b3c81600560003373ffffffffffffffffffffffffffffffffffffffff1673ffffffffffffffffffffffffffffffffffffffff16815260200190815260200160002061116790919063ffffffff16565b50336002600083815260200190815260200160002060006101000a81548173ffffffffffffffffffffffffffffffffffffffff021916908373ffffffffffffffffffffffffffffffffffffffff160217905550856003600083815260200190815260200160002060006101000a81548173ffffffffffffffffffffffffffffffffffffffff021916908373ffffffffffffffffffffffffffffffffffffffff1602179055507ff9737fb21ba0a655cfd646d5eaa8663a7e631f45e5d5b1eb6c16d50ec8e947a08686868686604051610c18959493929190611f25565b60405180910390a1505050505050565b6000341415610c6c576040517f08c379a0000000000000000000000000000000000000000000000000000000008152600401610c63906120b9565b60405180910390fd5b610cbe34600460008473ffffffffffffffffffffffffffffffffffffffff1673ffffffffffffffffffffffffffffffffffffffff1681526020019081526020016000205461117e90919063ffffffff16565b600460008373ffffffffffffffffffffffffffffffffffffffff1673ffffffffffffffffffffffffffffffffffffffff1681526020019081526020016000208190555050565b60015481565b60046020528060005260406000206000915090505481565b600073ffffffffffffffffffffffffffffffffffffffff166002600083815260200190815260200160002060009054906101000a900473ffffffffffffffffffffffffffffffffffffffff1673ffffffffffffffffffffffffffffffffffffffff161415610dc5576040517f08c379a0000000000000000000000000000000000000000000000000000000008152600401610dbc90612099565b60405180910390fd5b610e1681600560003373ffffffffffffffffffffffffffffffffffffffff1673ffffffffffffffffffffffffffffffffffffffff16815260200190815260200160002061119490919063ffffffff16565b506002600082815260200190815260200160002060006101000a81549073ffffffffffffffffffffffffffffffffffffffff02191690556003600082815260200190815260200160002060006101000a81549073ffffffffffffffffffffffffffffffffffffffff02191690557fe1e1d79b8f28d3379fc32f617eaf54dd6bd4071074c77e91134770e04a81d62681604051610eb29190611f9c565b60405180910390a150565b60008183610ecb919061224d565b905092915050565b6000601883836003818110610f11577f4e487b7100000000000000000000000000000000000000000000000000000000600052603260045260246000fd5b9050013560f81c60f81b7effffffffffffffffffffffffffffffffffffffffffffffffffffffffffffff19167bffffffffffffffffffffffffffffffffffffffffffffffffffffffff1916901c601084846002818110610f9a577f4e487b7100000000000000000000000000000000000000000000000000000000600052603260045260246000fd5b9050013560f81c60f81b7effffffffffffffffffffffffffffffffffffffffffffffffffffffffffffff19167bffffffffffffffffffffffffffffffffffffffffffffffffffffffff1916901c600885856001818110611023577f4e487b7100000000000000000000000000000000000000000000000000000000600052603260045260246000fd5b9050013560f81c60f81b7effffffffffffffffffffffffffffffffffffffffffffffffffffffffffffff19167bffffffffffffffffffffffffffffffffffffffffffffffffffffffff1916901c858560008181106110aa577f4e487b7100000000000000000000000000000000000000000000000000000000600052603260045260246000fd5b9050013560f81c60f81b7effffffffffffffffffffffffffffffffffffffffffffffffffffffffffffff1916171717905092915050565b6111628363a9059cbb60e01b8484604051602401611100929190611f73565b604051602081830303815290604052907bffffffffffffffffffffffffffffffffffffffffffffffffffffffff19166020820180517bffffffffffffffffffffffffffffffffffffffffffffffffffffffff83818316178352505050506111ab565b505050565b60006111768360000183611272565b905092915050565b6000818361118c91906121f7565b905092915050565b60006111a383600001836112e2565b905092915050565b600061120d826040518060400160405280602081526020017f5361666545524332303a206c6f772d6c6576656c2063616c6c206661696c65648152508573ffffffffffffffffffffffffffffffffffffffff166114689092919063ffffffff16565b905060008151111561126d578080602001905181019061122d91906117c9565b61126c576040517f08c379a000000000000000000000000000000000000000000000000000000000815260040161126390612119565b60405180910390fd5b5b505050565b600061127e8383611480565b6112d75782600001829080600181540180825580915050600190039060005260206000200160009091909190915055826000018054905083600101600084815260200190815260200160002081905550600190506112dc565b600090505b92915050565b6000808360010160008481526020019081526020016000205490506000811461145c576000600182611314919061224d565b905060006001866000018054905061132c919061224d565b90508181146113e7576000866000018281548110611373577f4e487b7100000000000000000000000000000000000000000000000000000000600052603260045260246000fd5b90600052602060002001549050808760000184815481106113bd577f4e487b7100000000000000000000000000000000000000000000000000000000600052603260045260246000fd5b90600052602060002001819055508387600101600083815260200190815260200160002081905550505b85600001805480611421577f4e487b7100000000000000000000000000000000000000000000000000000000600052603160045260246000fd5b600190038181906000526020600020016000905590558560010160008681526020019081526020016000206000905560019350505050611462565b60009150505b92915050565b606061147784846000856114a3565b90509392505050565b600080836001016000848152602001908152602001600020541415905092915050565b6060824710156114e8576040517f08c379a00000000000000000000000000000000000000000000000000000000081526004016114df90612039565b60405180910390fd5b6114f1856115b7565b611530576040517f08c379a0000000000000000000000000000000000000000000000000000000008152600401611527906120f9565b60405180910390fd5b6000808673ffffffffffffffffffffffffffffffffffffffff1685876040516115599190611e9a565b60006040518083038185875af1925050503d8060008114611596576040519150601f19603f3d011682016040523d82523d6000602084013e61159b565b606091505b50915091506115ab8282866115ca565b92505050949350505050565b600080823b905060008111915050919050565b606083156115da5782905061162a565b6000835111156115ed5782518084602001fd5b816040517f08c379a00000000000000000000000000000000000000000000000000000000081526004016116219190611fb7565b60405180910390fd5b9392505050565b60008135905061164081612393565b92915050565b600081519050611655816123aa565b92915050565b60008135905061166a816123c1565b92915050565b60008135905061167f816123d8565b92915050565b60008083601f84011261169757600080fd5b8235905067ffffffffffffffff8111156116b057600080fd5b6020830191508360018202830111156116c857600080fd5b9250929050565b6000813590506116de816123ef565b92915050565b6000602082840312156116f657600080fd5b600061170484828501611631565b91505092915050565b6000806040838503121561172057600080fd5b600061172e85828601611631565b925050602061173f85828601611670565b9150509250929050565b60008060008060006080868803121561176157600080fd5b600061176f88828901611631565b955050602061178088828901611670565b945050604061179188828901611631565b935050606086013567ffffffffffffffff8111156117ae57600080fd5b6117ba88828901611685565b92509250509295509295909350565b6000602082840312156117db57600080fd5b60006117e984828501611646565b91505092915050565b60006020828403121561180457600080fd5b60006118128482850161165b565b91505092915050565b60006020828403121561182d57600080fd5b600061183b848285016116cf565b91505092915050565b6000806000806060858703121561185a57600080fd5b6000611868878288016116cf565b945050602061187987828801611631565b935050604085013567ffffffffffffffff81111561189657600080fd5b6118a287828801611685565b925092505092959194509250565b6118b981612293565b82525050565b6118c881612281565b82525050565b6118d7816122b1565b82525050565b6118e6816122bb565b82525050565b60006118f883856121ca565b9350611905838584612311565b61190e83612382565b840190509392505050565b600061192583856121db565b9350611932838584612311565b82840190509392505050565b6000611949826121b4565b61195381856121db565b9350611963818560208601612320565b80840191505092915050565b600061197a826121bf565b61198481856121e6565b9350611994818560208601612320565b61199d81612382565b840191505092915050565b60006119b56017836121e6565b91507f47656c61746f666965643a204f6e6c792067656c61746f0000000000000000006000830152602082019050919050565b60006119f5601b836121e6565b91507f506f6b654d653a20657865633a204e6f207461736b20666f756e6400000000006000830152602082019050919050565b6000611a356036836121e6565b91507f506f6b654d653a20776974686472617746756e64733a2053656e64657220686160008301527f7320696e73756666696369656e742062616c616e6365000000000000000000006020830152604082019050919050565b6000611a9b6026836121e6565b91507f416464726573733a20696e73756666696369656e742062616c616e636520666f60008301527f722063616c6c00000000000000000000000000000000000000000000000000006020830152604082019050919050565b6000611b01601e836121e6565b91507f506f6b654d653a20657865633a20457865637574696f6e206661696c656400006000830152602082019050919050565b6000611b41602b836121e6565b91507f506f6b654d653a20657865633a2053656e64657220646964206e6f742073746160008301527f7274207461736b207965740000000000000000000000000000000000000000006020830152604082019050919050565b6000611ba76031836121e6565b91507f506f6b654d653a2063616e63656c5461736b3a2053656e64657220646964206e60008301527f6f74207374617274207461736b207965740000000000000000000000000000006020830152604082019050919050565b6000611c0d6023836121e6565b91507f506f6b654d653a206465706f73697446756e64733a204e6f206574686572207360008301527f656e7400000000000000000000000000000000000000000000000000000000006020830152604082019050919050565b6000611c73602f836121e6565b91507f506f6b654d653a206372656174655461736b3a2053656e64657220616c72656160008301527f64792073746172746564207461736b00000000000000000000000000000000006020830152604082019050919050565b6000611cd96000836121db565b9150600082019050919050565b6000611cf3601d836121e6565b91507f416464726573733a2063616c6c20746f206e6f6e2d636f6e74726163740000006000830152602082019050919050565b6000611d33602a836121e6565b91507f5361666545524332303a204552433230206f7065726174696f6e20646964206e60008301527f6f742073756363656564000000000000000000000000000000000000000000006020830152604082019050919050565b6000611d99602c836121e6565b91507f506f6b654d653a20776974686472617746756e64733a2057697468647261772060008301527f66756e6473206661696c656400000000000000000000000000000000000000006020830152604082019050919050565b6000611dff601f836121e6565b91507f5265656e7472616e637947756172643a207265656e7472616e742063616c6c006000830152602082019050919050565b6000611e3f601d836121e6565b91507f47656c61746f666965643a2047656c61746f20666565206661696c65640000006000830152602082019050919050565b611e7b81612307565b82525050565b6000611e8e828486611919565b91508190509392505050565b6000611ea6828461193e565b915081905092915050565b6000611ebc82611ccc565b9150819050919050565b6000602082019050611edb60008301846118bf565b92915050565b6000602082019050611ef660008301846118b0565b92915050565b6000604082019050611f1160008301856118bf565b611f1e60208301846118dd565b9392505050565b6000608082019050611f3a60008301886118bf565b611f4760208301876118dd565b611f5460408301866118bf565b8181036060830152611f678184866118ec565b90509695505050505050565b6000604082019050611f8860008301856118bf565b611f956020830184611e72565b9392505050565b6000602082019050611fb160008301846118ce565b92915050565b60006020820190508181036000830152611fd1818461196f565b905092915050565b60006020820190508181036000830152611ff2816119a8565b9050919050565b60006020820190508181036000830152612012816119e8565b9050919050565b6000602082019050818103600083015261203281611a28565b9050919050565b6000602082019050818103600083015261205281611a8e565b9050919050565b6000602082019050818103600083015261207281611af4565b9050919050565b6000602082019050818103600083015261209281611b34565b9050919050565b600060208201905081810360008301526120b281611b9a565b9050919050565b600060208201905081810360008301526120d281611c00565b9050919050565b600060208201905081810360008301526120f281611c66565b9050919050565b6000602082019050818103600083015261211281611ce6565b9050919050565b6000602082019050818103600083015261213281611d26565b9050919050565b6000602082019050818103600083015261215281611d8c565b9050919050565b6000602082019050818103600083015261217281611df2565b9050919050565b6000602082019050818103600083015261219281611e32565b9050919050565b60006020820190506121ae6000830184611e72565b92915050565b600081519050919050565b600081519050919050565b600082825260208201905092915050565b600081905092915050565b600082825260208201905092915050565b600061220282612307565b915061220d83612307565b9250827fffffffffffffffffffffffffffffffffffffffffffffffffffffffffffffffff0382111561224257612241612353565b5b828201905092915050565b600061225882612307565b915061226383612307565b92508282101561227657612275612353565b5b828203905092915050565b600061228c826122e7565b9050919050565b600061229e826122e7565b9050919050565b60008115159050919050565b6000819050919050565b60007fffffffff0000000000000000000000000000000000000000000000000000000082169050919050565b600073ffffffffffffffffffffffffffffffffffffffff82169050919050565b6000819050919050565b82818337600083830152505050565b60005b8381101561233e578082015181840152602081019050612323565b8381111561234d576000848401525b50505050565b7f4e487b7100000000000000000000000000000000000000000000000000000000600052601160045260246000fd5b6000601f19601f8301169050919050565b61239c81612281565b81146123a757600080fd5b50565b6123b3816122a5565b81146123be57600080fd5b50565b6123ca816122b1565b81146123d557600080fd5b50565b6123e1816122bb565b81146123ec57600080fd5b50565b6123f881612307565b811461240357600080fd5b5056fea26469706673582212205ff4343a66fa2a6358ea23e0828af75b636d3e9245ee916fff07aa88337093f064736f6c63430008000033",
  "devdoc": {
    "kind": "dev",
    "methods": {},
    "version": 1
  },
  "userdoc": {
    "kind": "user",
    "methods": {},
    "version": 1
  },
  "storageLayout": {
    "storage": [
      {
        "astId": 10,
        "contract": "contracts/PokeMe2.sol:PokeMe2",
        "label": "_status",
        "offset": 0,
        "slot": "0",
        "type": "t_uint256"
      },
      {
        "astId": 2152,
        "contract": "contracts/PokeMe2.sol:PokeMe2",
        "label": "id",
        "offset": 0,
        "slot": "1",
        "type": "t_uint256"
      },
      {
        "astId": 2156,
        "contract": "contracts/PokeMe2.sol:PokeMe2",
        "label": "calleeOfTask",
        "offset": 0,
        "slot": "2",
        "type": "t_mapping(t_bytes32,t_address)"
      },
      {
        "astId": 2160,
        "contract": "contracts/PokeMe2.sol:PokeMe2",
        "label": "execAddresses",
        "offset": 0,
        "slot": "3",
        "type": "t_mapping(t_bytes32,t_address)"
      },
      {
        "astId": 2164,
        "contract": "contracts/PokeMe2.sol:PokeMe2",
        "label": "balanceOfCallee",
        "offset": 0,
        "slot": "4",
        "type": "t_mapping(t_address,t_uint256)"
      },
      {
        "astId": 2169,
        "contract": "contracts/PokeMe2.sol:PokeMe2",
        "label": "_createdTasks",
        "offset": 0,
        "slot": "5",
        "type": "t_mapping(t_address,t_struct(Bytes32Set)1140_storage)"
      }
    ],
    "types": {
      "t_address": {
        "encoding": "inplace",
        "label": "address",
        "numberOfBytes": "20"
      },
      "t_array(t_bytes32)dyn_storage": {
        "base": "t_bytes32",
        "encoding": "dynamic_array",
        "label": "bytes32[]",
        "numberOfBytes": "32"
      },
      "t_bytes32": {
        "encoding": "inplace",
        "label": "bytes32",
        "numberOfBytes": "32"
      },
      "t_mapping(t_address,t_struct(Bytes32Set)1140_storage)": {
        "encoding": "mapping",
        "key": "t_address",
        "label": "mapping(address => struct EnumerableSet.Bytes32Set)",
        "numberOfBytes": "32",
        "value": "t_struct(Bytes32Set)1140_storage"
      },
      "t_mapping(t_address,t_uint256)": {
        "encoding": "mapping",
        "key": "t_address",
        "label": "mapping(address => uint256)",
        "numberOfBytes": "32",
        "value": "t_uint256"
      },
      "t_mapping(t_bytes32,t_address)": {
        "encoding": "mapping",
        "key": "t_bytes32",
        "label": "mapping(bytes32 => address)",
        "numberOfBytes": "32",
        "value": "t_address"
      },
      "t_mapping(t_bytes32,t_uint256)": {
        "encoding": "mapping",
        "key": "t_bytes32",
        "label": "mapping(bytes32 => uint256)",
        "numberOfBytes": "32",
        "value": "t_uint256"
      },
      "t_struct(Bytes32Set)1140_storage": {
        "encoding": "inplace",
        "label": "struct EnumerableSet.Bytes32Set",
        "members": [
          {
            "astId": 1139,
            "contract": "contracts/PokeMe2.sol:PokeMe2",
            "label": "_inner",
            "offset": 0,
            "slot": "0",
            "type": "t_struct(Set)960_storage"
          }
        ],
        "numberOfBytes": "64"
      },
      "t_struct(Set)960_storage": {
        "encoding": "inplace",
        "label": "struct EnumerableSet.Set",
        "members": [
          {
            "astId": 955,
            "contract": "contracts/PokeMe2.sol:PokeMe2",
            "label": "_values",
            "offset": 0,
            "slot": "0",
            "type": "t_array(t_bytes32)dyn_storage"
          },
          {
            "astId": 959,
            "contract": "contracts/PokeMe2.sol:PokeMe2",
            "label": "_indexes",
            "offset": 0,
            "slot": "1",
            "type": "t_mapping(t_bytes32,t_uint256)"
          }
        ],
        "numberOfBytes": "64"
      },
      "t_uint256": {
        "encoding": "inplace",
        "label": "uint256",
        "numberOfBytes": "32"
      }
    }
  }
}